{
  "_format": "hh-sol-artifact-1",
  "contractName": "MedSupplyChain",
  "sourceName": "contracts/MedSupplyChain.sol",
  "abi": [
    {
      "inputs": [],
      "stateMutability": "nonpayable",
      "type": "constructor"
    },
    {
      "inputs": [],
      "name": "AccessControlBadConfirmation",
      "type": "error"
    },
    {
      "inputs": [
        {
          "internalType": "address",
          "name": "account",
          "type": "address"
        },
        {
          "internalType": "bytes32",
          "name": "neededRole",
          "type": "bytes32"
        }
      ],
      "name": "AccessControlUnauthorizedAccount",
      "type": "error"
    },
    {
      "anonymous": false,
      "inputs": [
        {
          "indexed": true,
          "internalType": "string",
          "name": "batchId",
          "type": "string"
        },
        {
          "indexed": true,
          "internalType": "address",
          "name": "by",
          "type": "address"
        }
      ],
      "name": "BatchRecalled",
      "type": "event"
    },
    {
      "anonymous": false,
      "inputs": [
        {
          "indexed": true,
          "internalType": "string",
          "name": "batchId",
          "type": "string"
        },
        {
          "indexed": false,
          "internalType": "string",
          "name": "productId",
          "type": "string"
        },
        {
          "indexed": true,
          "internalType": "address",
          "name": "manufacturer",
          "type": "address"
        }
      ],
      "name": "BatchRegistered",
      "type": "event"
    },
    {
      "anonymous": false,
      "inputs": [
        {
          "indexed": true,
          "internalType": "string",
          "name": "batchId",
          "type": "string"
        },
        {
          "indexed": true,
          "internalType": "address",
          "name": "from",
          "type": "address"
        },
        {
          "indexed": true,
          "internalType": "address",
          "name": "to",
          "type": "address"
        }
      ],
      "name": "BatchTransferred",
      "type": "event"
    },
    {
      "anonymous": false,
      "inputs": [
        {
          "indexed": true,
          "internalType": "bytes32",
          "name": "role",
          "type": "bytes32"
        },
        {
          "indexed": true,
          "internalType": "bytes32",
          "name": "previousAdminRole",
          "type": "bytes32"
        },
        {
          "indexed": true,
          "internalType": "bytes32",
          "name": "newAdminRole",
          "type": "bytes32"
        }
      ],
      "name": "RoleAdminChanged",
      "type": "event"
    },
    {
      "anonymous": false,
      "inputs": [
        {
          "indexed": true,
          "internalType": "bytes32",
          "name": "role",
          "type": "bytes32"
        },
        {
          "indexed": true,
          "internalType": "address",
          "name": "account",
          "type": "address"
        },
        {
          "indexed": true,
          "internalType": "address",
          "name": "sender",
          "type": "address"
        }
      ],
      "name": "RoleGranted",
      "type": "event"
    },
    {
      "anonymous": false,
      "inputs": [
        {
          "indexed": true,
          "internalType": "bytes32",
          "name": "role",
          "type": "bytes32"
        },
        {
          "indexed": true,
          "internalType": "address",
          "name": "account",
          "type": "address"
        },
        {
          "indexed": true,
          "internalType": "address",
          "name": "sender",
          "type": "address"
        }
      ],
      "name": "RoleRevoked",
      "type": "event"
    },
    {
      "inputs": [],
      "name": "DEFAULT_ADMIN_ROLE",
      "outputs": [
        {
          "internalType": "bytes32",
          "name": "",
          "type": "bytes32"
        }
      ],
      "stateMutability": "view",
      "type": "function"
    },
    {
      "inputs": [],
      "name": "DISTRIBUTOR_ROLE",
      "outputs": [
        {
          "internalType": "bytes32",
          "name": "",
          "type": "bytes32"
        }
      ],
      "stateMutability": "view",
      "type": "function"
    },
    {
      "inputs": [],
      "name": "MANUFACTURER_ROLE",
      "outputs": [
        {
          "internalType": "bytes32",
          "name": "",
          "type": "bytes32"
        }
      ],
      "stateMutability": "view",
      "type": "function"
    },
    {
      "inputs": [],
      "name": "REGULATOR_ROLE",
      "outputs": [
        {
          "internalType": "bytes32",
          "name": "",
          "type": "bytes32"
        }
      ],
      "stateMutability": "view",
      "type": "function"
    },
    {
      "inputs": [
        {
          "internalType": "string",
          "name": "batchId",
          "type": "string"
        }
      ],
      "name": "getBatchHistory",
      "outputs": [
        {
          "internalType": "address[]",
          "name": "",
          "type": "address[]"
        }
      ],
      "stateMutability": "view",
      "type": "function"
    },
    {
      "inputs": [
        {
          "internalType": "bytes32",
          "name": "role",
          "type": "bytes32"
        }
      ],
      "name": "getRoleAdmin",
      "outputs": [
        {
          "internalType": "bytes32",
          "name": "",
          "type": "bytes32"
        }
      ],
      "stateMutability": "view",
      "type": "function"
    },
    {
      "inputs": [
        {
          "internalType": "bytes32",
          "name": "role",
          "type": "bytes32"
        },
        {
          "internalType": "address",
          "name": "account",
          "type": "address"
        }
      ],
      "name": "grantRole",
      "outputs": [],
      "stateMutability": "nonpayable",
      "type": "function"
    },
    {
      "inputs": [
        {
          "internalType": "bytes32",
          "name": "role",
          "type": "bytes32"
        },
        {
          "internalType": "address",
          "name": "account",
          "type": "address"
        }
      ],
      "name": "hasRole",
      "outputs": [
        {
          "internalType": "bool",
          "name": "",
          "type": "bool"
        }
      ],
      "stateMutability": "view",
      "type": "function"
    },
    {
      "inputs": [
        {
          "internalType": "string",
          "name": "batchId",
          "type": "string"
        }
      ],
      "name": "recallBatch",
      "outputs": [],
      "stateMutability": "nonpayable",
      "type": "function"
    },
    {
      "inputs": [
        {
          "internalType": "string",
          "name": "batchId",
          "type": "string"
        },
        {
          "internalType": "string",
          "name": "productId",
          "type": "string"
        },
        {
          "internalType": "string",
          "name": "productHash",
          "type": "string"
        }
      ],
      "name": "registerBatch",
      "outputs": [],
      "stateMutability": "nonpayable",
      "type": "function"
    },
    {
      "inputs": [
        {
          "internalType": "bytes32",
          "name": "role",
          "type": "bytes32"
        },
        {
          "internalType": "address",
          "name": "callerConfirmation",
          "type": "address"
        }
      ],
      "name": "renounceRole",
      "outputs": [],
      "stateMutability": "nonpayable",
      "type": "function"
    },
    {
      "inputs": [
        {
          "internalType": "bytes32",
          "name": "role",
          "type": "bytes32"
        },
        {
          "internalType": "address",
          "name": "account",
          "type": "address"
        }
      ],
      "name": "revokeRole",
      "outputs": [],
      "stateMutability": "nonpayable",
      "type": "function"
    },
    {
      "inputs": [
        {
          "internalType": "bytes4",
          "name": "interfaceId",
          "type": "bytes4"
        }
      ],
      "name": "supportsInterface",
      "outputs": [
        {
          "internalType": "bool",
          "name": "",
          "type": "bool"
        }
      ],
      "stateMutability": "view",
      "type": "function"
    },
    {
      "inputs": [
        {
          "internalType": "string",
          "name": "batchId",
          "type": "string"
        },
        {
          "internalType": "address",
          "name": "newHolder",
          "type": "address"
        }
      ],
      "name": "transferBatch",
      "outputs": [],
      "stateMutability": "nonpayable",
      "type": "function"
    },
    {
      "inputs": [
        {
          "internalType": "string",
          "name": "batchId",
          "type": "string"
        }
      ],
      "name": "verifyBatch",
      "outputs": [
        {
          "internalType": "string",
          "name": "",
          "type": "string"
        },
        {
          "internalType": "string",
          "name": "",
          "type": "string"
        },
        {
          "internalType": "address",
          "name": "",
          "type": "address"
        },
        {
          "internalType": "uint256",
          "name": "",
          "type": "uint256"
        },
        {
          "internalType": "bool",
          "name": "",
          "type": "bool"
        }
      ],
      "stateMutability": "view",
      "type": "function"
    }
  ],
  "bytecode": "0x608060405234801561001057600080fd5b506100246000801b3361002a60201b60201c565b50610199565b600061003c838361012760201b60201c565b61011c57600160008085815260200190815260200160002060000160008473ffffffffffffffffffffffffffffffffffffffff1673ffffffffffffffffffffffffffffffffffffffff16815260200190815260200160002060006101000a81548160ff0219169083151502179055506100b961019160201b60201c565b73ffffffffffffffffffffffffffffffffffffffff168273ffffffffffffffffffffffffffffffffffffffff16847f2f8788117e7eff1d82e926ec794901d17c78024a50270940304540a733656f0d60405160405180910390a460019050610121565b600090505b92915050565b600080600084815260200190815260200160002060000160008373ffffffffffffffffffffffffffffffffffffffff1673ffffffffffffffffffffffffffffffffffffffff16815260200190815260200160002060009054906101000a900460ff16905092915050565b600033905090565b611ed5806101a86000396000f3fe608060405234801561001057600080fd5b50600436106100f55760003560e01c8063965288b011610097578063b401563b11610066578063b401563b14610284578063d547741f146102a0578063e906dc42146102bc578063f0bd87cc146102f0576100f5565b8063965288b0146101fc578063a217fddf1461021a578063a252d8a714610238578063ae32ef1614610268576100f5565b80632f2ff15d116100d35780632f2ff15d1461017857806336568abe1461019457806352969187146101b057806391d14854146101cc576100f5565b806301ffc9a7146100fa578063144bf5891461012a578063248a9ca314610148575b600080fd5b610114600480360381019061010f91906112ff565b61030e565b6040516101219190611347565b60405180910390f35b610132610388565b60405161013f919061137b565b60405180910390f35b610162600480360381019061015d91906113c2565b6103ac565b60405161016f919061137b565b60405180910390f35b610192600480360381019061018d919061144d565b6103cb565b005b6101ae60048036038101906101a9919061144d565b6103ed565b005b6101ca60048036038101906101c591906115d3565b610468565b005b6101e660048036038101906101e1919061144d565b610607565b6040516101f39190611347565b60405180910390f35b610204610671565b604051610211919061137b565b60405180910390f35b610222610695565b60405161022f919061137b565b60405180910390f35b610252600480360381019061024d91906115d3565b61069c565b60405161025f91906116da565b60405180910390f35b610282600480360381019061027d91906116fc565b6107bb565b005b61029e600480360381019061029991906117a3565b610a5f565b005b6102ba60048036038101906102b5919061144d565b610d8a565b005b6102d660048036038101906102d191906115d3565b610dac565b6040516102e79594939291906118a6565b60405180910390f35b6102f8610fb5565b604051610305919061137b565b60405180910390f35b60007f7965db0b000000000000000000000000000000000000000000000000000000007bffffffffffffffffffffffffffffffffffffffffffffffffffffffff1916827bffffffffffffffffffffffffffffffffffffffffffffffffffffffff19161480610381575061038082610fd9565b5b9050919050565b7f3c801090d1d22d8d8fe9837ef6d8ab50dfdff14e17d0039e333d4d7138ed50b381565b6000806000838152602001908152602001600020600101549050919050565b6103d4826103ac565b6103dd81611043565b6103e78383611057565b50505050565b6103f5611148565b73ffffffffffffffffffffffffffffffffffffffff168173ffffffffffffffffffffffffffffffffffffffff1614610459576040517f6697b23200000000000000000000000000000000000000000000000000000000815260040160405180910390fd5b6104638282611150565b505050565b7f3c801090d1d22d8d8fe9837ef6d8ab50dfdff14e17d0039e333d4d7138ed50b361049281611043565b60006001836040516104a49190611943565b908152602001604051809103902060000180546104c090611989565b905003610502576040517f08c379a00000000000000000000000000000000000000000000000000000000081526004016104f990611a06565b60405180910390fd5b6001826040516105129190611943565b908152602001604051809103902060040160009054906101000a900460ff1615610571576040517f08c379a000000000000000000000000000000000000000000000000000000000815260040161056890611a72565b60405180910390fd5b600180836040516105829190611943565b908152602001604051809103902060040160006101000a81548160ff0219169083151502179055503373ffffffffffffffffffffffffffffffffffffffff16826040516105cf9190611943565b60405180910390207f423ae59b8825a6f0d6872201b0102d5bc3ff543cca72ddf16d2e4d698fc9898b60405160405180910390a35050565b600080600084815260200190815260200160002060000160008373ffffffffffffffffffffffffffffffffffffffff1673ffffffffffffffffffffffffffffffffffffffff16815260200190815260200160002060009054906101000a900460ff16905092915050565b7f6659d833875b88922d2576dad6c137a09ba676496bb2010bf8a72397792167a081565b6000801b81565b606060006001836040516106b09190611943565b908152602001604051809103902060000180546106cc90611989565b90500361070e576040517f08c379a000000000000000000000000000000000000000000000000000000000815260040161070590611a06565b60405180910390fd5b60018260405161071e9190611943565b90815260200160405180910390206005018054806020026020016040519081016040528092919081815260200182805480156107af57602002820191906000526020600020905b8160009054906101000a900473ffffffffffffffffffffffffffffffffffffffff1673ffffffffffffffffffffffffffffffffffffffff1681526020019060010190808311610765575b50505050509050919050565b7f6659d833875b88922d2576dad6c137a09ba676496bb2010bf8a72397792167a06107e581611043565b60006001856040516107f79190611943565b9081526020016040518091039020600001805461081390611989565b905014610855576040517f08c379a000000000000000000000000000000000000000000000000000000000815260040161084c90611ade565b60405180910390fd5b826001856040516108669190611943565b908152602001604051809103902060000190816108839190611caa565b50816001856040516108959190611943565b908152602001604051809103902060010190816108b29190611caa565b50336001856040516108c49190611943565b908152602001604051809103902060020160006101000a81548173ffffffffffffffffffffffffffffffffffffffff021916908373ffffffffffffffffffffffffffffffffffffffff160217905550426001856040516109249190611943565b908152602001604051809103902060030181905550600060018560405161094b9190611943565b908152602001604051809103902060040160006101000a81548160ff0219169083151502179055506001846040516109839190611943565b9081526020016040518091039020600501339080600181540180825580915050600190039060005260206000200160009091909190916101000a81548173ffffffffffffffffffffffffffffffffffffffff021916908373ffffffffffffffffffffffffffffffffffffffff1602179055503373ffffffffffffffffffffffffffffffffffffffff1684604051610a1a9190611943565b60405180910390207fe187ef62f610f162883fdada619504c09c0981be2dc09fbc1029e7a09db45a9385604051610a519190611d7c565b60405180910390a350505050565b6000600183604051610a719190611943565b90815260200160405180910390206000018054610a8d90611989565b905003610acf576040517f08c379a0000000000000000000000000000000000000000000000000000000008152600401610ac690611a06565b60405180910390fd5b600182604051610adf9190611943565b908152602001604051809103902060040160009054906101000a900460ff1615610b3e576040517f08c379a0000000000000000000000000000000000000000000000000000000008152600401610b3590611dea565b60405180910390fd5b3373ffffffffffffffffffffffffffffffffffffffff16600183604051610b659190611943565b908152602001604051809103902060020160009054906101000a900473ffffffffffffffffffffffffffffffffffffffff1673ffffffffffffffffffffffffffffffffffffffff1614610bed576040517f08c379a0000000000000000000000000000000000000000000000000000000008152600401610be490611e56565b60405180910390fd5b6000600183604051610bff9190611943565b908152602001604051809103902060020160009054906101000a900473ffffffffffffffffffffffffffffffffffffffff16905081600184604051610c449190611943565b908152602001604051809103902060020160006101000a81548173ffffffffffffffffffffffffffffffffffffffff021916908373ffffffffffffffffffffffffffffffffffffffff160217905550600183604051610ca39190611943565b9081526020016040518091039020600501829080600181540180825580915050600190039060005260206000200160009091909190916101000a81548173ffffffffffffffffffffffffffffffffffffffff021916908373ffffffffffffffffffffffffffffffffffffffff1602179055508173ffffffffffffffffffffffffffffffffffffffff168173ffffffffffffffffffffffffffffffffffffffff1684604051610d519190611943565b60405180910390207fa8b047db3c9b378a978a9cc59c0f75a2671f935a140d6799f8f56104f0ec6dd660405160405180910390a4505050565b610d93826103ac565b610d9c81611043565b610da68383611150565b50505050565b606080600080600080600187604051610dc59190611943565b90815260200160405180910390206000018054610de190611989565b905003610e23576040517f08c379a0000000000000000000000000000000000000000000000000000000008152600401610e1a90611a06565b60405180910390fd5b6000600187604051610e359190611943565b9081526020016040518091039020905080600001816001018260020160009054906101000a900473ffffffffffffffffffffffffffffffffffffffff1683600301548460040160009054906101000a900460ff16848054610e9590611989565b80601f0160208091040260200160405190810160405280929190818152602001828054610ec190611989565b8015610f0e5780601f10610ee357610100808354040283529160200191610f0e565b820191906000526020600020905b815481529060010190602001808311610ef157829003601f168201915b50505050509450838054610f2190611989565b80601f0160208091040260200160405190810160405280929190818152602001828054610f4d90611989565b8015610f9a5780601f10610f6f57610100808354040283529160200191610f9a565b820191906000526020600020905b815481529060010190602001808311610f7d57829003601f168201915b50505050509350955095509550955095505091939590929450565b7f85faced7bde13e1a7dad704b895f006e704f207617d68166b31ba2d79624862d81565b60007f01ffc9a7000000000000000000000000000000000000000000000000000000007bffffffffffffffffffffffffffffffffffffffffffffffffffffffff1916827bffffffffffffffffffffffffffffffffffffffffffffffffffffffff1916149050919050565b6110548161104f611148565b611242565b50565b60006110638383610607565b61113d57600160008085815260200190815260200160002060000160008473ffffffffffffffffffffffffffffffffffffffff1673ffffffffffffffffffffffffffffffffffffffff16815260200190815260200160002060006101000a81548160ff0219169083151502179055506110da611148565b73ffffffffffffffffffffffffffffffffffffffff168273ffffffffffffffffffffffffffffffffffffffff16847f2f8788117e7eff1d82e926ec794901d17c78024a50270940304540a733656f0d60405160405180910390a460019050611142565b600090505b92915050565b600033905090565b600061115c8383610607565b1561123757600080600085815260200190815260200160002060000160008473ffffffffffffffffffffffffffffffffffffffff1673ffffffffffffffffffffffffffffffffffffffff16815260200190815260200160002060006101000a81548160ff0219169083151502179055506111d4611148565b73ffffffffffffffffffffffffffffffffffffffff168273ffffffffffffffffffffffffffffffffffffffff16847ff6391f5c32d9c69d2a47ea670b442974b53935d1edc7fd64eb21e047a839171b60405160405180910390a46001905061123c565b600090505b92915050565b61124c8282610607565b61128f5780826040517fe2517d3f000000000000000000000000000000000000000000000000000000008152600401611286929190611e76565b60405180910390fd5b5050565b6000604051905090565b600080fd5b600080fd5b60007fffffffff0000000000000000000000000000000000000000000000000000000082169050919050565b6112dc816112a7565b81146112e757600080fd5b50565b6000813590506112f9816112d3565b92915050565b6000602082840312156113155761131461129d565b5b6000611323848285016112ea565b91505092915050565b60008115159050919050565b6113418161132c565b82525050565b600060208201905061135c6000830184611338565b92915050565b6000819050919050565b61137581611362565b82525050565b6000602082019050611390600083018461136c565b92915050565b61139f81611362565b81146113aa57600080fd5b50565b6000813590506113bc81611396565b92915050565b6000602082840312156113d8576113d761129d565b5b60006113e6848285016113ad565b91505092915050565b600073ffffffffffffffffffffffffffffffffffffffff82169050919050565b600061141a826113ef565b9050919050565b61142a8161140f565b811461143557600080fd5b50565b60008135905061144781611421565b92915050565b600080604083850312156114645761146361129d565b5b6000611472858286016113ad565b925050602061148385828601611438565b9150509250929050565b600080fd5b600080fd5b6000601f19601f8301169050919050565b7f4e487b7100000000000000000000000000000000000000000000000000000000600052604160045260246000fd5b6114e082611497565b810181811067ffffffffffffffff821117156114ff576114fe6114a8565b5b80604052505050565b6000611512611293565b905061151e82826114d7565b919050565b600067ffffffffffffffff82111561153e5761153d6114a8565b5b61154782611497565b9050602081019050919050565b82818337600083830152505050565b600061157661157184611523565b611508565b90508281526020810184848401111561159257611591611492565b5b61159d848285611554565b509392505050565b600082601f8301126115ba576115b961148d565b5b81356115ca848260208601611563565b91505092915050565b6000602082840312156115e9576115e861129d565b5b600082013567ffffffffffffffff811115611607576116066112a2565b5b611613848285016115a5565b91505092915050565b600081519050919050565b600082825260208201905092915050565b6000819050602082019050919050565b6116518161140f565b82525050565b60006116638383611648565b60208301905092915050565b6000602082019050919050565b60006116878261161c565b6116918185611627565b935061169c83611638565b8060005b838110156116cd5781516116b48882611657565b97506116bf8361166f565b9250506001810190506116a0565b5085935050505092915050565b600060208201905081810360008301526116f4818461167c565b905092915050565b6000806000606084860312156117155761171461129d565b5b600084013567ffffffffffffffff811115611733576117326112a2565b5b61173f868287016115a5565b935050602084013567ffffffffffffffff8111156117605761175f6112a2565b5b61176c868287016115a5565b925050604084013567ffffffffffffffff81111561178d5761178c6112a2565b5b611799868287016115a5565b9150509250925092565b600080604083850312156117ba576117b961129d565b5b600083013567ffffffffffffffff8111156117d8576117d76112a2565b5b6117e4858286016115a5565b92505060206117f585828601611438565b9150509250929050565b600081519050919050565b600082825260208201905092915050565b60005b8381101561183957808201518184015260208101905061181e565b60008484015250505050565b6000611850826117ff565b61185a818561180a565b935061186a81856020860161181b565b61187381611497565b840191505092915050565b6118878161140f565b82525050565b6000819050919050565b6118a08161188d565b82525050565b600060a08201905081810360008301526118c08188611845565b905081810360208301526118d48187611845565b90506118e3604083018661187e565b6118f06060830185611897565b6118fd6080830184611338565b9695505050505050565b600081905092915050565b600061191d826117ff565b6119278185611907565b935061193781856020860161181b565b80840191505092915050565b600061194f8284611912565b915081905092915050565b7f4e487b7100000000000000000000000000000000000000000000000000000000600052602260045260246000fd5b600060028204905060018216806119a157607f821691505b6020821081036119b4576119b361195a565b5b50919050565b7f4261746368206e6f7420666f756e640000000000000000000000000000000000600082015250565b60006119f0600f8361180a565b91506119fb826119ba565b602082019050919050565b60006020820190508181036000830152611a1f816119e3565b9050919050565b7f426174636820616c726561647920726563616c6c656400000000000000000000600082015250565b6000611a5c60168361180a565b9150611a6782611a26565b602082019050919050565b60006020820190508181036000830152611a8b81611a4f565b9050919050565b7f426174636820616c726561647920657869737473000000000000000000000000600082015250565b6000611ac860148361180a565b9150611ad382611a92565b602082019050919050565b60006020820190508181036000830152611af781611abb565b9050919050565b60008190508160005260206000209050919050565b60006020601f8301049050919050565b600082821b905092915050565b600060088302611b607fffffffffffffffffffffffffffffffffffffffffffffffffffffffffffffffff82611b23565b611b6a8683611b23565b95508019841693508086168417925050509392505050565b6000819050919050565b6000611ba7611ba2611b9d8461188d565b611b82565b61188d565b9050919050565b6000819050919050565b611bc183611b8c565b611bd5611bcd82611bae565b848454611b30565b825550505050565b600090565b611bea611bdd565b611bf5818484611bb8565b505050565b5b81811015611c1957611c0e600082611be2565b600181019050611bfb565b5050565b601f821115611c5e57611c2f81611afe565b611c3884611b13565b81016020851015611c47578190505b611c5b611c5385611b13565b830182611bfa565b50505b505050565b600082821c905092915050565b6000611c8160001984600802611c63565b1980831691505092915050565b6000611c9a8383611c70565b9150826002028217905092915050565b611cb3826117ff565b67ffffffffffffffff811115611ccc57611ccb6114a8565b5b611cd68254611989565b611ce1828285611c1d565b600060209050601f831160018114611d145760008415611d02578287015190505b611d0c8582611c8e565b865550611d74565b601f198416611d2286611afe565b60005b82811015611d4a57848901518255600182019150602085019450602081019050611d25565b86831015611d675784890151611d63601f891682611c70565b8355505b6001600288020188555050505b505050505050565b60006020820190508181036000830152611d968184611845565b905092915050565b7f426174636820686173206265656e20726563616c6c6564000000000000000000600082015250565b6000611dd460178361180a565b9150611ddf82611d9e565b602082019050919050565b60006020820190508181036000830152611e0381611dc7565b9050919050565b7f43616c6c6572206e6f742063757272656e7420686f6c64657200000000000000600082015250565b6000611e4060198361180a565b9150611e4b82611e0a565b602082019050919050565b60006020820190508181036000830152611e6f81611e33565b9050919050565b6000604082019050611e8b600083018561187e565b611e98602083018461136c565b939250505056fea2646970667358221220e3f6c2d010502a48b01053bc3d272aea3aac5685eac3aeed25a667c9bfb0c79a64736f6c634300081c0033",
  "linkReferences": {},
  "deployedLinkReferences": {}
}